S00B00004144432E7372656351
S11300000C942A000C9434000C9434000C943400A6
S11300100C9434000C9434000C9434000C9434008C
S11300200C9434000C9434000C9434000C9434007C
S11300300C9434000C9434000C9434000C9434006C
S11300400C9434000C9434000C9434000C9434005C
S11300500C94340011241FBECFE5D8E0DEBFCDBF21
S11300600E9446000C9450000C94000080E487B970
S113007087E886B9089597B18770987F892B87B9E7
S1130080369A3699FECF84B195B108950E94360010
S1130090BB9A81E683BF80E00E943B008CBFFBCF0C
S10700A0F894FFCFFE
S9030000FC
